:10042C0050617373776F72643A004F4B00455252B0
:01043C0000BF
:100160001204187BFF7A04792C7D017F0112038F22
:100170001200038F1CE51C60F7D3940A5041C3E5BD
:10018000199404E51894005020AE1AAF1B7C007D32
:100190000A12024A8E1A8F1BE51C75F00A84E5F0DC
:1001A000251BF51BE4351AF51A0519E5197002052A
:1001B00018750C04AB1BAA1A7D017F021203D0E54F
:1001C0001C640B7036E51BB4290DE51AB409087BD5
:1001D000FF7A04793680067BFF7A0479397D0E7FB9
:1001E0000112038FE4F51AF51BF518F519750C04C7
:1001F000AB1BAA1A7D017F021203D0E51C640C60C0
:1002000003020170F51AF51BF518F519750C04AB0E
:0D0210001BAA1A7D017F021203D0020170AB
:10040300EF1FAC0670011E4C600A7D027CEFDCFE20
:04041300DDFC80ECA0
:0104170022C2
:06043D00C2A58F80D2A7CA
:080443007F027EEFDEFEDFFC0C
:01044B00228E
:0A045800C2A612043DC2A70204432D
:1003B200CFCDCFCECCCE12025C7C007D0A12025C85
:0403C200ED2430FFF7
:0A03C600D2A612043DC2A7020443B0
:1003ED00AE07BE0104ED148006BE0209ED243F44A4
:0603FD0080FF12045822EB
:100418007F381204587F0C1204587F061204587F44
:040428000102045871
:0A046200AC031203EDAF040203C661
:06038F008B088A09890AAF
:100395001203EDE4FDAB08AA09A90A8D8275830055
:0C03A50012021DFF60061203C60D80E965
:0103B1002229
:0C035C007F0AEA24FFFDE434FFFC7E0071
:080368008E0D8F0E8C0F8D101D
:100370007F017E00E4FBEBC39510E50F6480F87409
:0E0380008098500AAC0DAD0E12024A0B80E8B8
:01038E00224C
:0403D0008A0A8B0BFF
:1003D4001203EDAA0CEAD39400400D12035CAC0A9C
:0803E400AD0B1203B21A80ED0B
:0103EC0022EE
:1002B1001203EDC3EA64809480400B7F2B1203C6C6
:1002C1008A168B17800E7F2D1203C6C3E49BF51788
:1002D100E49AF516AA15EAD39400400D12035CAC1A
:0902E10016AD171203B21A80EDEC
:0102EA0022F1
:0402EB008A1F8B20BB
:1002EF001203EDAA21EAD3940040297F1012035E76
:1002FF00AC1FAD20CFCDCFCECCCE12025CEF540FC2
:10030F00FEC3940AEE5004243080022437FF1203F8
:04031F00C61A80D1A9
:0103230022B7
:040324008A248B2577
:100328001203EDAA26EAD394004028EA24FFFDE44C
:1003380034FFFC7F027E00120368AC24AD25CFCDCC
:10034800CFCECCCE12025CEF54012430FF1203C68C
:030358001A80D236
:01035B00227F
:10000300E4F5087590FFC2932097147F14FE8007D0
:100013002097097F147E0012040380F475080120E1
:10002300961180032096097F147E0012040380F446
:1000330075080520951180032095097F147E001211
:10004300040380F475080920941180032094097F28
:10005300147E0012040380F475080D7590FFC2929C
:1000630020971180032097097F147E0012040380D8
:10007300F475080220961180032096097F147E00F0
:1000830012040380F4750806209511800320950956
:100093007F147E0012040380F475080A20941180F3
:1000A300032094097F147E0012040380F475080E64
:1000B3007590FFC29120971180032097097F147ECA
:1000C3000012040380F47508032096118003209620
:1000D300097F147E0012040380F47508072095112C
:1000E30080032095097F147E0012040380F47508B1
:1000F3000B20941180032094097F147E00120403C3
:1001030080F475080F7590FFC2902097118003202B
:1001130097097F147E0012040380F4750804209667
:100123001180032096097F147E0012040380F47566
:10013300080820951180032095097F147E0012047E
:100143000380F475080C20941180032094097F1414
:0C0153007E0012040380F4750810AF0851
:01015F00227D
:0300000002044CAB
:0C044C00787FE4F6D8FD7581260201607F
:10021D00BB010CE58229F582E5833AF583E0225096
:10022D0006E92582F8E622BBFE06E92582F8E222E0
:0D023D00E58229F582E5833AF583E49322FA
:10024A00EF8DF0A4A8F0CF8CF0A428CE8DF0A42EC8
:02025A00FE2282
:10025C00BC000BBE0029EF8DF084FFADF022E4CC86
:10026C00F875F008EF2FFFEE33FEEC33FCEE9DEC4F
:10027C00984005FCEE9DFE0FD5F0E9E4CEFD22ED95
:10028C00F8F5F0EE8420D21CFEADF075F008EF2FDF
:10029C00FFED33FD4007985006D5F0F222C398FDD0
:0502AC000FD5F0EA226D
:00000001FF
