:0B03B2004D61747269784B65793A0068
:1002D2001203837BFF7A0379B27D017F011202FA56
:1002E2001200038F22E52260F7FB7A00750C027D73
:0802F200017F0212033B80E8CA
:10036E00EF1FAC0670011E4C600A7D027CEFDCFEB6
:04037E00DDFC80EC36
:010382002258
:06039700C2A58F80D2A771
:08039D007F027EEFDEFEDFFCB3
:0103A5002235
:0A03BD00C2A6120397C2A702039D17
:10031D00CFCDCFCECCCE12019F7C007D0A12019F96
:04032D00ED2430FF8C
:0A033100D2A6120397C2A702039D93
:10035800AE07BE0104ED148006BE0209ED243F4439
:0603680080FF1203BD221C
:100383007F381203BD7F0C1203BD7F061203BD7FAE
:04039300010203BDA3
:0A03C700AC03120358AF0402033127
:0602FA008B088A09890A45
:10030000120358E4FDAB08AA09A90A8D827583007F
:0C031000120160FF60061203310D80E94D
:01031C0022BE
:0C029F007F0AEA24FFFDE434FFFC7E002F
:0802AB008E0D8F0E8C0F8D10DB
:1002B3007F017E00E4FBEBC39510E50F6480F874C7
:0E02C3008098500AAC0DAD0E12018D0B80E834
:0102D100220A
:04033B008A0A8B0B94
:10033F00120358AA0CEAD39400400D12029FAC0A84
:08034F00AD0B12031D1A80ED35
:010357002283
:1001F400120358C3EA64809480400B7F2B120331AE
:100204008A168B17800E7F2D120331C3E49BF517DA
:10021400E49AF516AA15EAD39400400D12029FAC95
:0902240016AD1712031D1A80ED3E
:01022D0022AE
:04022E008A1A8B1B82
:10023200120358AA1CEAD3940040297F101202A18B
:10024200AC1AAD1BCFCDCFCECCCE12019FEF540F47
:10025200FEC3940AEE5004243080022437FF1203B6
:04026200311A80D1FC
:010266002275
:040267008A1F8B203F
:10026B00120358AA21EAD394004028EA24FFFDE4A4
:10027B0034FFFC7F027E001202ABAC1FAD20CFCD52
:10028B00CFCECCCE12019FEF54012430FF1203319D
:03029B001A80D2F4
:01029E00223D
:10000300E4F5087590FFC2932097147F14FE8007D0
:100013002097097F147E0012036E80F47508012077
:10002300961180032096097F147E0012036E80F4DC
:1000330075080520951180032095097F147E001211
:10004300036E80F475080920941180032094097FBE
:10005300147E0012036E80F475080D7590FFC29232
:1000630020971180032097097F147E0012036E806E
:10007300F475080220961180032096097F147E00F0
:1000830012036E80F47508062095118003209509EC
:100093007F147E0012036E80F475080A2094118089
:1000A300032094097F147E0012036E80F475080EFA
:1000B3007590FFC29120971180032097097F147ECA
:1000C3000012036E80F475080320961180032096B6
:1000D300097F147E0012036E80F4750807209511C2
:1000E30080032095097F147E0012036E80F4750847
:1000F3000B20941180032094097F147E0012036E59
:1001030080F475080F7590FFC2902097118003202B
:1001130097097F147E0012036E80F47508042096FD
:100123001180032096097F147E0012036E80F475FC
:10013300080820951180032095097F147E0012037F
:100143006E80F475080C20941180032094097F14A9
:0C0153007E0012036E80F4750810AF08E7
:01015F00227D
:030000000203A652
:0C03A600787FE4F6D8FD7581220202D2B7
:10016000BB010CE58229F582E5833AF583E0225054
:1001700006E92582F8E622BBFE06E92582F8E2229E
:0D018000E58229F582E5833AF583E49322B8
:10018D00EF8DF0A4A8F0CF8CF0A428CE8DF0A42E86
:02019D00FE2240
:10019F00BC000BBE0029EF8DF084FFADF022E4CC44
:1001AF00F875F008EF2FFFEE33FEEC33FCEE9DEC0D
:1001BF00984005FCEE9DFE0FD5F0E9E4CEFD22ED53
:1001CF00F8F5F0EE8420D21CFEADF075F008EF2F9D
:1001DF00FFED33FD4007985006D5F0F222C398FD8E
:0501EF000FD5F0EA222B
:00000001FF
